:020000040000FA
:100000003FC059C058C057C056C055C054C053C057
:1000100052C04CC150C04FC04EC04DC04CC04BC070
:100020004AC049C048C000000000000000000004B1
:1000300005070000000000000000000000010204AD
:10004000081020408001020408102001020408105A
:100050002040804004040404040404040202020258
:10006000020203030303030302020300000000383B
:10007000003500320000000000370034003100007D
:1000800011241FBECFE5D4E0DEBFCDBF10E0A0E657
:10009000B0E0E8EAF5E002C005900D92A036B107A5
:1000A000D9F720E0A0E6B0E001C01D92A936B20762
:1000B000E1F76DD277C2A4CF61E085E0FED161E0C7
:1000C00086E0FBD161E087E0F8D161E082E0F5D124
:1000D00061E080E0F2D161E081E0EFD160E080E0BA
:1000E000ECD160E081E0E9D161E083E0E6D160E05D
:1000F00082E0E3D161E083E0E0D161E084E0DDD142
:1001000061E083E0DAD161E084E0D7D161E085E0AD
:10011000D4C1CF93DF93EC018F3F910519F014F018
:10012000CFEFD0E0D7FF02C0D0E0C0E0BE0185E055
:100130007CD161E086E0FDD160E087E0FAD1BE01CC
:1001400082E073D161E080E0F4D160E081E0DF9192
:10015000CF91EFC1CF93DF93EC018F3F910519F061
:1001600014F0CFEFD0E0D7FF02C0D0E0C0E0BE0176
:1001700085E05BD160E086E0DCD161E087E0D9D149
:10018000BE0182E052D160E080E0D3D161E081E045
:10019000DF91CF91CEC1CF93DF93EC018F3F9105DB
:1001A00019F014F0CFEFD0E0D7FF02C0D0E0C0E0EC
:1001B000BE0185E03AD160E086E0BBD160E087E037
:1001C000B8D1BE0182E031D161E080E0B2D160E01F
:1001D00081E0DF91CF91ADC1CF93DF93EC018F3FF1
:1001E000910519F014F0CFEFD0E0D7FF02C0D0E0B6
:1001F000C0E0BE0185E019D161E086E09AD160E0FF
:1002000087E097D1BE0182E010D160E080E091D11B
:1002100060E081E0DF91CF918CC160E086E089D120
:1002200060E087E086D170E060E085E0FED060E0CD
:1002300080E07FD160E081E07CD170E060E082E02E
:10024000F4C061E084E075D18FEF90E062DF68EB8D
:100250007BE080E090E09AD0E0DF68EE73E080E041
:1002600090E094D08FEF90E075DF68EB7BE080E06A
:1002700090E08CD08FEF90E0AFDF64E670E080E03C
:1002800090E084D0CADF68EE73E080E090E07ED03A
:100290008FEF90E080DF64E670E080E090E076D061
:1002A000BCDF68EE73E080E090E070C01F920F92B8
:1002B0000FB60F9211242F933F938F939F93AF9379
:1002C000BF938091650090916600A0916700B09106
:1002D00068003091640023E0230F2D3768F126E891
:1002E000230F0296A11DB11D209364008093650029
:1002F00090936600A0936700B093680080916000BF
:1003000090916100A0916200B09163000196A11DDF
:10031000B11D8093600090936100A0936200B09340
:100320006300BF91AF919F918F913F912F910F905B
:100330000FBE0F901F9018950196A11DB11DD4CF2F
:100340003FB7F8948091600090916100A0916200A5
:10035000B091630022B708B600FE05C02F3F19F028
:100360000196A11DB11D3FBFBA2FA92F982F882735
:10037000BC01CD01620F711D811D911D42E0660F10
:10038000771F881F991F4A95D1F708958F929F92E2
:10039000AF92BF92CF92DF92EF92FF926B017C01FE
:1003A000CFDF4B015C01C114D104E104F104D9F0A9
:1003B000F8D0C6DF681979098A099B09683E73403D
:1003C0008105910580F321E0C21AD108E108F10806
:1003D00088EE880E83E0981EA11CB11CC114D104C4
:1003E000E104F10431F7FF90EF90DF90CF90BF90E0
:1003F000AF909F908F900895789483B7836083BF68
:1004000089B7816089BF82E08EBD8EB581608EBD67
:100410008FB581608FBD85B5846085BD85B58064ED
:1004200085BD87E886B91AB808951F93CF93DF93E7
:10043000182FEB0161E041D0209731F460E0812F6B
:10044000DF91CF911F9175C0CF3FD10511F461E0CD
:10045000F6CFE12FF0E0EA5DFF4FE491E53069F07F
:10046000E73089F0E430A1F48FB580688FBDDBBD43
:10047000CABDDF91CF911F9108958FB580628FBD66
:10048000D9BDC8BDF6CF85B5806285BDC3BDF1CFEE
:10049000C038D105E4F6D2CF853041F0873049F03D
:1004A000843051F48FB58F778FBD08958FB58F7DD0
:1004B000FBCF85B58F7D85BD0895CF93DF9390E009
:1004C000FC01E35CFF4F24918C5A9F4FFC01849107
:1004D0008823C9F090E0880F991FFC01EB58FF4F6B
:1004E000A591B491FC01E559FF4FC591D4916111DB
:1004F0000DC09FB7F8948C91209582238C938881AE
:10050000282328839FBFDF91CF910895623051F453
:100510009FB7F8943C91822F809583238C93E88138
:100520002E2BEFCF8FB7F894EC912E2B2C938FBFFF
:10053000EACF1F93CF93DF93282F30E0F901EA5DD4
:10054000FF4F8491F901E35CFF4FD491F901EC5A1C
:10055000FF4FC491CC23A1F0162F81119DDFEC2F0A
:10056000F0E0EE0FFF1FE559FF4FA591B4918FB753
:10057000F894EC91111108C0D095DE23DC938FBF65
:10058000DF91CF911F910895DE2BF8CF089534DFCE
:10059000FDDF92DDC0E0D0E054DE2097E9F330DDEE
:0805A000FBCF0895F894FFCF92
:101E000001C0B2C011248FE594E09EBF8DBF84B79E
:101E1000882361F0982F9A70923041F081FF02C0C0
:101E200097EF94BF282E80E0BAD0EAC085E08EBD3F
:101E300082E08BB988E18AB986E880BD80E189B902
:101E40008EE0ADD0BD9A84E020E33CEF44E050E268
:101E50003DBD2CBD48BF08B602FEFDCF98B3952707
:101E600098BBA8955F9902C0815091F791D08134B9
:101E700079F48ED0182F97D0123811F480E004C076
:101E800088E0113809F083E07FD080E17DD0EECF8B
:101E9000823419F484E18FD0F8CF853411F485E0D1
:101EA000FACF853541F474D0C82F72D0D82FCC0F1B
:101EB000DD1F79D0EACF863519F484E07CD0DECFFF
:101EC000843699F565D064D0182F62D0D82E012FB2
:101ED00090E6E92EF12C57018FEFA81AB80A58D0D6
:101EE000F701808301507501B1F75DD0F5E4DF1291
:101EF00001C0FFCF50E040E063E0CE0135D07E016D
:101F000080E6C82ED12CF601419151916F0161E01C
:101F1000C7012AD0F2E0EF0EF11C1250A1F750E0F9
:101F200040E065E0CE0120D0B0CF843771F430D0EE
:101F30002FD0F82E2DD037D08E01F80185918F014A
:101F400023D0FA94F110F9CFA0CF853739F42BD0F4
:101F50008EE11AD083E918D087E096CF813509F059
:101F6000A8CF88E01CD0A5CFFC010A0167BFE89587
:101F7000112407B600FCFDCF667029F0452B19F43B
:101F800081E187BFE89508955D9BFECF8CB90895E8
:101F90005F9BFECF5C9901C0A8958CB1089598E134
:101FA00091BD81BD0895F4DF803219F088E0F7DF3C
:101FB000FFCF84E1E9CFCF93C82FEADFC150E9F723
:041FC000CF91F1CFFD
:021FFE000008D9
:00000001FF
